:020000040800F2
:10000000FC1F0020FD0A0000C50A0000C50A000010
:10001000C50A0000C50A0000C50A0000C50A0000A4
:10002000C50A0000C50A0000C50A0000C50A000094
:10003000C50A0000C50A0000C50A0000C50A000084
:10004000C50A0000C50A0000C50A0000C50A000074
:10005000C50A0000C50A0000C50A0000C50A000064
:10006000C50A0000C50A0000C50A0000C50A000054
:10007000C50A0000C50A0000C50A0000C50A000044
:10008000C50A0000C50A0000C50A0000C50A000034
:10009000C50A0000C50A0000C50A0000C50A000024
:1000A000C50A0000C50A0000C50A0000C50A000014
:1000B000CD0A0000C50A0000C50A0000C50A0000FC
:1000C000C50A0000C50A0000C50A0000C50A0000F4
:1000D000C50A0000C50A0000C50A0000C50A0000E4
:1000E000C50A0000C50A0000C50A0000C50A0000D4
:1000F000C50A0000C50A0000C50A0000C50A0000C4
:10010000C50A0000C50A0000C50A0000C50A0000B3
:10011000C50A0000C50A0000C50A0000C50A0000A3
:10012000C50A0000C50A0000C50A0000C50A000093
:10013000C50A000001480068704700BF08000020A1
:1001400083B0CDF800E000F0FF031A09104603F079
:100150000F02134614E0194A02921FE0184A029255
:100160001CE0184A029219E0174A029216E0174A58
:10017000029213E0164A029210E0164A02920DE033
:100180000028E8D00128E9D00228EAD00328EBD0E3
:100190000428ECD00528EDD00628EED0012212B2BA
:1001A0009A40ADF8042002980A46BDF8041000F009
:1001B0003FFADDF800E003B0704700BF00080140DF
:1001C000000C0140001001400014014000180140E3
:1001D000001C01400020014081B0ADF80010014634
:1001E000BDF800000B68C3F3C01202B9FAE70A1D9C
:1001F000106001B07047FFFF81B0CDF800E0012230
:1002000052B23E490A6000F268010B686FF000616B
:1002100003EA0102144603F00061C90E0B4602F026
:100220000041B1F1004F02D135490A6801E035497A
:100230000A6804F47021090C0E464FF6FF7104EAB7
:1002400001010D4604F44011B1F5401F0DD16FF0CE
:10025000706102EA01010E462A490A686FF0706176
:100260000A4028490A60324617E004F48011B1F5CB
:10027000801F09D14FF00301B140C94302EA0101D7
:1002800041F070610A4608E0610D090105FA01F1CB
:10029000C94302EA010141F070622BB1610D09010D
:1002A00005FA01F10A43FFE704F00041B1F1004F04
:1002B00002D113490A6001E012490A6040F2000AC3
:1002C00081464FEA8A0109EB01010968B1F1FF3F5C
:1002D00010D009F134014FEA8A03C91809680A46A7
:1002E00009EB0301096808461146FFF729FF0AF1E7
:1002F000010AE6E7DDF800E001B070470003424282
:100300001C0001400400014081B0194900EA0101CC
:10031000084600220EE0042022E0082020E0102001
:100320001EE020201CE040201AE0802018E040F26F
:10033000001015E00F498842EDD00F498842ECD0FB
:100340000E498842EBD00E498842EAD00D498842D6
:10035000E9D00D498842E8D00C498842E7D01046E0
:100360000B49096841EA000209490A6001B0704777
:1003700000FCFFFF00080140000C0140001001409C
:100380000014014000180140001C01400020014001
:100390001810024082B0CDF800E0034619460191E2
:1003A000FFF7C8FE40F2E83100FB01F201990A6054
:1003B0001F490978C1F30311C8B21E49091808780A
:1003C000C0B21A1D1968C140116019490988C1F3EA
:1003D000022188B2174909180878C0B203F208024E
:1003E000191D0968C140116011490988C1F3C22172
:1003F00088B2104909180878C0B203F20C02191D1E
:100400000968C14011600A490988C1F3813188B285
:10041000094909180978C8B203F2100203F20C0165
:100420000968B1FBF0F11160DDF800E002B070473F
:1004300004100240D00C0000E70C000081B0CDF8A1
:1004400000E000260A78D3B20546D8B20C4650B177
:10045000C1B22846FFF7C0FE721CD2B2D6B2A218B3
:100460001278D0B2F3E7DDF800E001B07047FFFF8B
:100470008BB0CDF800E00891ADF82830BDF82C40E5
:10048000ADF82C400C9E03AC01902046FFF782FF94
:100490000198514CA04212D101256DB24F4C2560FC
:1004A0004F4D504C2560504D504C2560504D514C97
:1004B0002560514D514C2560069C02942AE0504C19
:1004C000A04212D101256DB24E4C25604E4D454CD7
:1004D00025604E4D454C25604D4D464C25604D4D9B
:1004E000464C2560059C029414E04B4CA04211D16F
:1004F00001256DB2494C2560494D3A4C2560494D66
:100500003A4C2560484D3B4C2560484D3B4C25609E
:10051000059C029401903046FFF76EFE019800F2B0
:10052000100500242C6000F210063568BDF82C4040
:1005300045EA0404346000F20C0500242C60BDF888
:1005400028402CB1BDF8284044F48064ADF8284020
:1005500000F20C063568BDF8284045EA0404346012
:1005600000F20C060125346865F34D34346000F266
:100570000C060125346865F3C304346000F20C06F0
:100580000125346865F38204346000F21405002408
:100590002C60029D19246543089CA400B5FBF4F56A
:1005A00029466424B5FBF4F4240122462509642479
:1005B0006C430C1B240104F232056424B5FBF4F4F3
:1005C00004F00F0442EA040400F20805A4B22C600F
:1005D000DDF800E00BB070470038014038034242BC
:1005E000950800000C0000206508000010000020A5
:1005F0007D08000014000020FFFFFFFF180000200E
:1006000000440040C4034242FFFFFFFFFFFFFFFF23
:10061000FFFFFFFFFFFFFFFF00480040C80342420B
:10062000FFFFFFFFFFFFFFFFFFFFFFFFFFFFFFFFDA
:1006300081B0CDF800E08CB21546774B00EA030399
:100640001E461846FFF760FEB4F1FF0F0CD1734B46
:100650009D4203D14FF033333360D9E0422D03D1B3
:100660004FF044333360D3E04FF6FF739C4214D114
:100670006A4B9D4207D14FF033333360341D4FF046
:1006800033332360C4E0422D07D14FF0443333604D
:10069000341D4FF044332360BAE00021002005F000
:1006A00001030BB100211DE005F0020333B105F495
:1006B000C0730BB1082100E0042113E005F004032E
:1006C00033B105F020030BB1042100E0002109E063
:1006D00005F0080333B105F020030BB10C2100E055
:1006E0000821FFE74E4B05EA03030BB1032009E0A5
:1006F00005F400730BB1022004E005F480630BB134
:100700000120FFE705F00C030BB10143FFE704F004
:10071000FF039BB2002B3BD0376800201FFA84F800
:1007200032462E4608282CD24FF0010303FA00F47B
:1007300008EA0403A34222D185004FF00F03AB4027
:10074000DB4307EA030401FA05F344EA03031D4609
:1007500006F48173B3F5817F05D102F214044FF0E2
:1007600001038340236006F08203822B05D102F24D
:1007700010044FF00103834023602F46FFE7401C25
:10078000D0E717601FFA88F00F463146164602E0A0
:100790000F462946A0B2B0F1FF0F39D9331DD3F867
:1007A00000800022082A30D202F208044FF0010330
:1007B00003FA04F400EA0403A34224D195004FF0A5
:1007C0000F03AB40DB4308EA030407FA05F344EAEE
:1007D000030801F48173B3F5817F07D106F2140594
:1007E00002F208044FF00103A3402B6001F08203E2
:1007F000822B07D106F2100502F208044FF0010324
:10080000A3402B60FFE7521CCCE7331DC3F80080E8
:10081000DDF800E001B0704700FCFFFF14000800A5
:100820000008080081B00268C2F3401101B9FAE77C
:10083000011D096888B201B07047FFFF81B00168EF
:10084000C1F3401001B0704781B0CDF800E001461F
:100850000348FFF7F3FDDDF800E001B0704700BF8B
:100860000038014081B0CDF800E00348FFF7DAFF1F
:10087000DDF800E001B070470038014081B0CDF8EC
:1008800000E00348FFF7DAFFDDF800E001B0704751
:100890000038014081B0CDF800E081B20348FFF795
:1008A0009BFCDDF800E001B0704700BF003801405C
:1008B00081B0CDF800E0044A89B2FFF7B9FEDDF857
:1008C00000E001B0704700BF1400080081B0EFF3F2
:1008D000108C604662B601B07047FFFF81B00428FB
:1008E00006D11949096841F4803217490A6028E0A5
:1008F000052806D11449096841F4003212490A60FA
:100900001FE0062806D11049096841F480220E49EB
:100910000A6016E00F2806D10C49096841F002026E
:100920000A490A600DE010280BD3A0F210046109F7
:100930008A0007498B1804F01F024FF00101914013
:10094000196001B0704700BF24ED00E010E000E046
:1009500000E100E081B0CDF800E0094A40F200017A
:1009600004B402B440F2000340F20002014605481C
:10097000FFF77EFD02B0DDF800E001B0704700BF78
:10098000380C00000038014081B04FF000094FF0F2
:10099000000CBDEB0A0F04DCBDEB0B0F01DBD446F2
:1009A000EA464BF8049BBBEB0A0FFAD1BCEB0A0FEB
:1009B00005DDE246D9F800B00BF1040BF1E701B018
:1009C0007047FFFF81B01CF8019B0BF8019BBBEB4C
:1009D0000A0FF8D101B0704781B0CDF800E00121D5
:1009E00049B20E480160002149B20D48016007215B
:1009F0000C48016000210C48016040F22C00FFF718
:100A00006DFF012149B20948016005480160FFF707
:100A10005DFFDDF800E001B0704700BF8003424297
:100A200000000042280000402C00004080010042ED
:100A300081B0CDF800E040F200110548FFF738FF23
:100A4000002149B203480160DDF800E001B07047C1
:100A500000100140A001224281B0CDF800E042F236
:100A60008050FFF777FF41F2A917C0F2040700BFDB
:100A700000BF7F1EFDD100BF00BF0648FFF7E4FEA8
:100A80000D20FFF707FF0A20FFF704FFDDF800E065
:100A900001B070470000002081B0CDF800E0FFF702
:100AA000EDFE38B1FFF7DEFE0449087040F27771C1
:100AB00003480160DDF800E001B070470700002046
:100AC0002C00004081B0FEE701B07047002149B220
:100AD000034801600349086880F00100086070471E
:100AE00000020042A001224281B002490248016096
:100AF00001B07047401F00000800002000F04AF8D5
:100B000000F034F9FFF7F0FF00F0F0F8FFF790FF86
:100B1000FFF762FFFFF7A0FF40F277711C4801600A
:100B200040F2A927C0F6E57700BF00BF7F1EFDD1C8
:100B300000BF00BF40F200011548016040F2A92744
:100B4000C0F6E57700BF00BF7F1EFDD100BF00BF2C
:100B500040F297510E48016040F2A927C0F6E577B0
:100B600000BF00BF7F1EFDD100BF00BF40F20001EB
:100B70000748016040F2A927C0F6E57700BF00BF33
:100B80007F1EFDD100BF00BFFFF786FFFCE7FEE739
:100B90002C00004082B0214A21480190214B01994C
:100BA0002148016021480360214802EA00012148F0
:100BB000016002F0010040B111461E48006800F0DB
:100BC000020000B9F9E70A46FFE702F4803040B1BD
:100BD00011461848006800F40030002800D1F8E7FA
:100BE00000E0114601F0807058B11248006840F0F2
:100BF0008071104801600F48006800F0007000B973
:100C0000F9E70948006800F00C010198800000F045
:100C10000C00814200D0F4E702B070478100000070
:100C20000000000000000000041002402C100240F0
:100C3000FFFF0F0000100240090000000A00000042
:100C4000FFFFFFFF000000000000000000000000A8
:100C50000000000000000000000000000000000094
:100C60000000000000000000000000001808000064
:100C7000180000000000000000000000000000005C
:100C80000000000000000000000000000000000064
:100C90000000000000000000000000000000000054
:100CA0000400000077070B07A6064706EC0597052A
:100CB0004705FB04B30470043004F4030000FFFF95
:100CC0000000000000000000000000000000000024
:100CD00000000000010203040102030406070809E2
:100CE000496E6963696F0002040608FF00B540F2AF
:100CF000000BC2F2000B40F2070AC2F2000A40F6F3
:100D0000E04CC0F2000CFFF75DFE00BD7047FFFF36
:100D1000FFFFFFFFFFFFFFFFFFFFFFFFFFFFFFFFE3
:100D2000FFFFFFFFFFFFFFFFFFFFFFFFFFFFFFFFD3
:100D3000FFFFFFFFFFFFFFFFFFFFFFFFFFFFFFFFC3
:100D4000FFFFFFFFFFFFFFFFFFFFFFFFFFFFFFFFB3
:100D5000FFFFFFFFFFFFFFFFFFFFFFFFFFFFFFFFA3
:100D6000FFFFFFFFFFFFFFFFFFFFFFFF00B540F2A8
:100D7000000BC2F2000B40F21C0AC2F2000AFFF79D
:100D800003FE00BD7047FFFFFFFFFFFFFFFFFFFFF8
:00000001FF
